{
  "abi": [
    {
      "inputs": [],
      "stateMutability": "nonpayable",
      "type": "constructor"
    },
    {
      "anonymous": false,
      "inputs": [
        {
          "indexed": false,
          "internalType": "string",
          "name": "name",
          "type": "string"
        },
        {
          "indexed": false,
          "internalType": "string",
          "name": "description",
          "type": "string"
        },
        {
          "indexed": false,
          "internalType": "uint256",
          "name": "dueDate",
          "type": "uint256"
        }
      ],
      "name": "TaskCreated",
      "type": "event"
    },
    {
      "anonymous": false,
      "inputs": [
        {
          "indexed": false,
          "internalType": "uint256",
          "name": "index",
          "type": "uint256"
        }
      ],
      "name": "TaskMarkedAsComplete",
      "type": "event"
    },
    {
      "anonymous": false,
      "inputs": [
        {
          "indexed": false,
          "internalType": "uint256",
          "name": "index",
          "type": "uint256"
        }
      ],
      "name": "TaskRemoved",
      "type": "event"
    },
    {
      "inputs": [
        {
          "internalType": "address",
          "name": "_admin",
          "type": "address"
        }
      ],
      "name": "addAdmin",
      "outputs": [],
      "stateMutability": "nonpayable",
      "type": "function"
    },
    {
      "inputs": [
        {
          "internalType": "address",
          "name": "",
          "type": "address"
        }
      ],
      "name": "admins",
      "outputs": [
        {
          "internalType": "bool",
          "name": "",
          "type": "bool"
        }
      ],
      "stateMutability": "view",
      "type": "function"
    },
    {
      "inputs": [
        {
          "internalType": "string",
          "name": "_name",
          "type": "string"
        },
        {
          "internalType": "string",
          "name": "_description",
          "type": "string"
        },
        {
          "internalType": "uint256",
          "name": "_dueDate",
          "type": "uint256"
        }
      ],
      "name": "createTask",
      "outputs": [],
      "stateMutability": "nonpayable",
      "type": "function"
    },
    {
      "inputs": [
        {
          "internalType": "uint256",
          "name": "index",
          "type": "uint256"
        }
      ],
      "name": "markTaskAsComplete",
      "outputs": [],
      "stateMutability": "nonpayable",
      "type": "function"
    },
    {
      "inputs": [
        {
          "internalType": "address",
          "name": "_admin",
          "type": "address"
        }
      ],
      "name": "removeAdmin",
      "outputs": [],
      "stateMutability": "nonpayable",
      "type": "function"
    },
    {
      "inputs": [
        {
          "internalType": "uint256",
          "name": "index",
          "type": "uint256"
        }
      ],
      "name": "removeTask",
      "outputs": [],
      "stateMutability": "nonpayable",
      "type": "function"
    },
    {
      "inputs": [
        {
          "internalType": "uint256",
          "name": "",
          "type": "uint256"
        }
      ],
      "name": "tasks",
      "outputs": [
        {
          "internalType": "string",
          "name": "name",
          "type": "string"
        },
        {
          "internalType": "string",
          "name": "description",
          "type": "string"
        },
        {
          "internalType": "uint256",
          "name": "dueDate",
          "type": "uint256"
        },
        {
          "internalType": "bool",
          "name": "completed",
          "type": "bool"
        }
      ],
      "stateMutability": "view",
      "type": "function"
    },
    {
      "inputs": [],
      "name": "viewTasks",
      "outputs": [
        {
          "components": [
            {
              "internalType": "string",
              "name": "name",
              "type": "string"
            },
            {
              "internalType": "string",
              "name": "description",
              "type": "string"
            },
            {
              "internalType": "uint256",
              "name": "dueDate",
              "type": "uint256"
            },
            {
              "internalType": "bool",
              "name": "completed",
              "type": "bool"
            }
          ],
          "internalType": "struct TaskList.Task[]",
          "name": "",
          "type": "tuple[]"
        }
      ],
      "stateMutability": "view",
      "type": "function"
    }
  ],
  "bytecode": {
    "object": "0x608060405234801561001057600080fd5b50336000908152600160208190526040909120805460ff191690911790556111d58061003d6000396000f3fe608060405234801561001057600080fd5b50600436106100885760003560e01c806368fa3f0b1161005b57806368fa3f0b1461010657806370480275146101195780638d9776721461012c578063c30841171461014f57600080fd5b80631785f53c1461008d578063362e433d146100a257806341a4e30a146100c0578063429b62e5146100d3575b600080fd5b6100a061009b366004610c01565b610162565b005b6100aa61021e565b6040516100b79190610c77565b60405180910390f35b6100a06100ce366004610db7565b6103c8565b6100f66100e1366004610c01565b60016020526000908152604090205460ff1681565b60405190151581526020016100b7565b6100a0610114366004610e24565b6105bd565b6100a0610127366004610c01565b610718565b61013f61013a366004610e24565b61076e565b6040516100b79493929190610e3d565b6100a061015d366004610e24565b6108c2565b3360009081526001602052604090205460ff1661019a5760405162461bcd60e51b815260040161019190610e7b565b60405180910390fd5b6001600160a01b03811633036101fd5760405162461bcd60e51b815260206004820152602260248201527f43616e6e6f742072656d6f76652073656c662066726f6d2061646d696e206c696044820152611cdd60f21b6064820152608401610191565b6001600160a01b03166000908152600160205260409020805460ff19169055565b60606103c36000805480602002602001604051908101604052809291908181526020016000905b828210156103ba578382906000526020600020906004020160405180608001604052908160008201805461027890610ebe565b80601f01602080910402602001604051908101604052809291908181526020018280546102a490610ebe565b80156102f15780601f106102c6576101008083540402835291602001916102f1565b820191906000526020600020905b8154815290600101906020018083116102d457829003601f168201915b5050505050815260200160018201805461030a90610ebe565b80601f016020809104026020016040519081016040528092919081815260200182805461033690610ebe565b80156103835780601f1061035857610100808354040283529160200191610383565b820191906000526020600020905b81548152906001019060200180831161036657829003601f168201915b5050509183525050600282015460208083019190915260039092015460ff1615156040909101529082526001929092019101610245565b50505050610a6d565b905090565b3360009081526001602052604090205460ff166103f75760405162461bcd60e51b815260040161019190610e7b565b600083511161043f5760405162461bcd60e51b81526020600482015260146024820152734e616d652063616e6e6f7420626520656d70747960601b6044820152606401610191565b60008251116104905760405162461bcd60e51b815260206004820152601b60248201527f4465736372697074696f6e2063616e6e6f7420626520656d70747900000000006044820152606401610191565b4281116104df5760405162461bcd60e51b815260206004820152601e60248201527f4475652064617465206d75737420626520696e207468652066757475726500006044820152606401610191565b60408051608081018252848152602081018490529081018290526000606082018190528054600181018255908052815160049091027f290decd9548b62a8d60345a988386fc84ba6bc95484008f6362f93160ef3e563019081906105439082610f47565b50602082015160018201906105589082610f47565b5060408281015160028301556060909201516003909101805460ff1916911515919091179055517f4c1df23b3548a5e2412f54f687ecaacea92674ee09007a8e94c72af55db395e5906105b090859085908590611007565b60405180910390a1505050565b3360009081526001602052604090205460ff166105ec5760405162461bcd60e51b815260040161019190610e7b565b60005481106106335760405162461bcd60e51b815260206004820152601360248201527215185cdac8191bd95cc81b9bdd08195e1a5cdd606a1b6044820152606401610191565b600081815481106106465761064661103d565b600091825260209091206003600490920201015460ff16156106aa5760405162461bcd60e51b815260206004820152601960248201527f5461736b20697320616c726561647920636f6d706c65746564000000000000006044820152606401610191565b6001600082815481106106bf576106bf61103d565b600091825260209182902060049190910201600301805460ff1916921515929092179091556040518281527f191c0801ea8d13c3c0b87380d8810e7fed6c584a9058ba338bf3bdf400550d62910160405180910390a150565b3360009081526001602052604090205460ff166107475760405162461bcd60e51b815260040161019190610e7b565b6001600160a01b03166000908152600160208190526040909120805460ff19169091179055565b6000818154811061077e57600080fd5b90600052602060002090600402016000915090508060000180546107a190610ebe565b80601f01602080910402602001604051908101604052809291908181526020018280546107cd90610ebe565b801561081a5780601f106107ef5761010080835404028352916020019161081a565b820191906000526020600020905b8154815290600101906020018083116107fd57829003601f168201915b50505050509080600101805461082f90610ebe565b80601f016020809104026020016040519081016040528092919081815260200182805461085b90610ebe565b80156108a85780601f1061087d576101008083540402835291602001916108a8565b820191906000526020600020905b81548152906001019060200180831161088b57829003601f168201915b50505050600283015460039093015491929160ff16905084565b3360009081526001602052604090205460ff166108f15760405162461bcd60e51b815260040161019190610e7b565b60005481106109385760405162461bcd60e51b815260206004820152601360248201527215185cdac8191bd95cc81b9bdd08195e1a5cdd606a1b6044820152606401610191565b6040518181527f36a2f40cfe61ace5baf26a6e4f86ffa75c62392fde263d354d42e0e718fa4bd19060200160405180910390a160005461097a90600190611069565b8114610a16576000805461099090600190611069565b815481106109a0576109a061103d565b9060005260206000209060040201600082815481106109c1576109c161103d565b60009182526020909120600490910201806109dc8382611082565b506001818101906109ef90840182611082565b50600282810154908201556003918201549101805460ff191660ff90921615159190911790555b6000805480610a2757610a2761115d565b60008281526020812060001990920191600483020190610a478282610bab565b610a55600183016000610bab565b5060006002820155600301805460ff19169055905550565b805160609060005b610a80600183611069565b811015610ba35760005b6001610a968385611069565b610aa09190611069565b811015610b905784610ab3826001611173565b81518110610ac357610ac361103d565b602002602001015160400151858281518110610ae157610ae161103d565b6020026020010151604001511115610b7e576000858281518110610b0757610b0761103d565b6020026020010151905085826001610b1f9190611173565b81518110610b2f57610b2f61103d565b6020026020010151868381518110610b4957610b4961103d565b60209081029190910101528086610b61846001611173565b81518110610b7157610b7161103d565b6020026020010181905250505b80610b8881611186565b915050610a8a565b5080610b9b81611186565b915050610a75565b509192915050565b508054610bb790610ebe565b6000825580601f10610bc7575050565b601f016020900490600052602060002090810190610be59190610be8565b50565b5b80821115610bfd5760008155600101610be9565b5090565b600060208284031215610c1357600080fd5b81356001600160a01b0381168114610c2a57600080fd5b9392505050565b6000815180845260005b81811015610c5757602081850181015186830182015201610c3b565b506000602082860101526020601f19601f83011685010191505092915050565b60006020808301818452808551808352604092508286019150828160051b87010184880160005b83811015610d0657603f19898403018552815160808151818652610cc482870182610c31565b915050888201518582038a870152610cdc8282610c31565b838a0151878b01526060938401511515939096019290925250509386019390860190600101610c9e565b509098975050505050505050565b634e487b7160e01b600052604160045260246000fd5b600082601f830112610d3b57600080fd5b813567ffffffffffffffff80821115610d5657610d56610d14565b604051601f8301601f19908116603f01168101908282118183101715610d7e57610d7e610d14565b81604052838152866020858801011115610d9757600080fd5b836020870160208301376000602085830101528094505050505092915050565b600080600060608486031215610dcc57600080fd5b833567ffffffffffffffff80821115610de457600080fd5b610df087838801610d2a565b94506020860135915080821115610e0657600080fd5b50610e1386828701610d2a565b925050604084013590509250925092565b600060208284031215610e3657600080fd5b5035919050565b608081526000610e506080830187610c31565b8281036020840152610e628187610c31565b6040840195909552505090151560609091015292915050565b60208082526023908201527f4f6e6c792061646d696e732063616e20706572666f726d20746869732061637460408201526234b7b760e91b606082015260800190565b600181811c90821680610ed257607f821691505b602082108103610ef257634e487b7160e01b600052602260045260246000fd5b50919050565b601f821115610f4257600081815260208120601f850160051c81016020861015610f1f5750805b601f850160051c820191505b81811015610f3e57828155600101610f2b565b5050505b505050565b815167ffffffffffffffff811115610f6157610f61610d14565b610f7581610f6f8454610ebe565b84610ef8565b602080601f831160018114610faa5760008415610f925750858301515b600019600386901b1c1916600185901b178555610f3e565b600085815260208120601f198616915b82811015610fd957888601518255948401946001909101908401610fba565b5085821015610ff75787850151600019600388901b60f8161c191681555b5050505050600190811b01905550565b60608152600061101a6060830186610c31565b828103602084015261102c8186610c31565b915050826040830152949350505050565b634e487b7160e01b600052603260045260246000fd5b634e487b7160e01b600052601160045260246000fd5b8181038181111561107c5761107c611053565b92915050565b81810361108d575050565b6110978254610ebe565b67ffffffffffffffff8111156110af576110af610d14565b6110bd81610f6f8454610ebe565b6000601f8211600181146110f157600083156110d95750848201545b600019600385901b1c1916600184901b178455611156565b600085815260209020601f19841690600086815260209020845b8381101561112b578286015482556001958601959091019060200161110b565b50858310156111495781850154600019600388901b60f8161c191681555b50505060018360011b0184555b5050505050565b634e487b7160e01b600052603160045260246000fd5b8082018082111561107c5761107c611053565b60006001820161119857611198611053565b506001019056fea2646970667358221220df64c2d62bdf184fccd5af5ac3c6a255fab230abf7187004afd6a61d62d309e864736f6c63430008130033",
    "linkReferences": {}
  },
  "methodIdentifiers": {
    "addAdmin(address)": "70480275",
    "admins(address)": "429b62e5",
    "createTask(string,string,uint256)": "41a4e30a",
    "markTaskAsComplete(uint256)": "68fa3f0b",
    "removeAdmin(address)": "1785f53c",
    "removeTask(uint256)": "c3084117",
    "tasks(uint256)": "8d977672",
    "viewTasks()": "362e433d"
  },
  "id": 17
}